{
  "contractName": "Cryptocares",
  "abi": [
    {
      "inputs": [],
      "stateMutability": "nonpayable",
      "type": "constructor"
    },
    {
      "anonymous": false,
      "inputs": [
        {
          "indexed": false,
          "internalType": "uint256",
          "name": "service_id",
          "type": "uint256"
        },
        {
          "indexed": false,
          "internalType": "address",
          "name": "service_provider",
          "type": "address"
        }
      ],
      "name": "ServiceAdded",
      "type": "event"
    },
    {
      "anonymous": false,
      "inputs": [
        {
          "indexed": false,
          "internalType": "uint256",
          "name": "service_id",
          "type": "uint256"
        }
      ],
      "name": "ServiceDisabled",
      "type": "event"
    },
    {
      "anonymous": false,
      "inputs": [
        {
          "indexed": false,
          "internalType": "uint256",
          "name": "service_id",
          "type": "uint256"
        }
      ],
      "name": "ServiceEnabled",
      "type": "event"
    },
    {
      "anonymous": false,
      "inputs": [
        {
          "indexed": false,
          "internalType": "address",
          "name": "service_provider",
          "type": "address"
        },
        {
          "indexed": false,
          "internalType": "string",
          "name": "uri",
          "type": "string"
        }
      ],
      "name": "ServiceProviderAdded",
      "type": "event"
    },
    {
      "inputs": [],
      "name": "NGO",
      "outputs": [
        {
          "internalType": "address",
          "name": "",
          "type": "address"
        }
      ],
      "stateMutability": "view",
      "type": "function"
    },
    {
      "inputs": [
        {
          "internalType": "address",
          "name": "",
          "type": "address"
        }
      ],
      "name": "Service_Providers",
      "outputs": [
        {
          "internalType": "address",
          "name": "service_provider",
          "type": "address"
        },
        {
          "internalType": "string",
          "name": "uri",
          "type": "string"
        }
      ],
      "stateMutability": "view",
      "type": "function"
    },
    {
      "inputs": [
        {
          "internalType": "uint256",
          "name": "",
          "type": "uint256"
        }
      ],
      "name": "Services_list",
      "outputs": [
        {
          "internalType": "uint256",
          "name": "service_id",
          "type": "uint256"
        },
        {
          "internalType": "address",
          "name": "service_provider",
          "type": "address"
        },
        {
          "internalType": "address payable",
          "name": "NGOaddress",
          "type": "address"
        },
        {
          "internalType": "uint256",
          "name": "minimum_donation_amount",
          "type": "uint256"
        },
        {
          "internalType": "uint256",
          "name": "duration",
          "type": "uint256"
        },
        {
          "internalType": "uint256",
          "name": "amountOfServices",
          "type": "uint256"
        },
        {
          "internalType": "bool",
          "name": "service_disable",
          "type": "bool"
        },
        {
          "internalType": "string",
          "name": "description",
          "type": "string"
        }
      ],
      "stateMutability": "view",
      "type": "function"
    },
    {
      "inputs": [
        {
          "internalType": "uint256",
          "name": "_service_id",
          "type": "uint256"
        },
        {
          "internalType": "uint256",
          "name": "_minimum_donation_amount",
          "type": "uint256"
        },
        {
          "internalType": "uint256",
          "name": "_duration",
          "type": "uint256"
        },
        {
          "internalType": "uint256",
          "name": "_amountOfServices",
          "type": "uint256"
        },
        {
          "internalType": "string",
          "name": "_description",
          "type": "string"
        },
        {
          "internalType": "string",
          "name": "_contactURI",
          "type": "string"
        }
      ],
      "name": "Add_Services",
      "outputs": [],
      "stateMutability": "nonpayable",
      "type": "function"
    },
    {
      "inputs": [
        {
          "internalType": "uint256",
          "name": "id",
          "type": "uint256"
        }
      ],
      "name": "Avail_Service",
      "outputs": [],
      "stateMutability": "payable",
      "type": "function"
    },
    {
      "inputs": [
        {
          "internalType": "uint256",
          "name": "id",
          "type": "uint256"
        }
      ],
      "name": "Disable_Service",
      "outputs": [],
      "stateMutability": "nonpayable",
      "type": "function"
    },
    {
      "inputs": [
        {
          "internalType": "uint256",
          "name": "id",
          "type": "uint256"
        }
      ],
      "name": "Enable_Service",
      "outputs": [],
      "stateMutability": "nonpayable",
      "type": "function"
    },
    {
      "inputs": [
        {
          "internalType": "uint256",
          "name": "id",
          "type": "uint256"
        }
      ],
      "name": "Get_Service",
      "outputs": [
        {
          "components": [
            {
              "internalType": "uint256",
              "name": "service_id",
              "type": "uint256"
            },
            {
              "internalType": "address",
              "name": "service_provider",
              "type": "address"
            },
            {
              "internalType": "address payable",
              "name": "NGOaddress",
              "type": "address"
            },
            {
              "internalType": "uint256",
              "name": "minimum_donation_amount",
              "type": "uint256"
            },
            {
              "internalType": "uint256",
              "name": "duration",
              "type": "uint256"
            },
            {
              "internalType": "uint256",
              "name": "amountOfServices",
              "type": "uint256"
            },
            {
              "internalType": "bool",
              "name": "service_disable",
              "type": "bool"
            },
            {
              "internalType": "string",
              "name": "description",
              "type": "string"
            }
          ],
          "internalType": "struct Cryptocares.Services",
          "name": "",
          "type": "tuple"
        }
      ],
      "stateMutability": "view",
      "type": "function"
    },
    {
      "inputs": [
        {
          "internalType": "address",
          "name": "service_provider",
          "type": "address"
        }
      ],
      "name": "Get_ServiceProvider",
      "outputs": [
        {
          "components": [
            {
              "internalType": "address",
              "name": "service_provider",
              "type": "address"
            },
            {
              "internalType": "string",
              "name": "uri",
              "type": "string"
            }
          ],
          "internalType": "struct Cryptocares.Service_Provider",
          "name": "",
          "type": "tuple"
        }
      ],
      "stateMutability": "view",
      "type": "function"
    }
  ],
  "bytecode": "0x60806040527368a99f89e475a078645f4bac491360afe255dff1600260006101000a81548173ffffffffffffffffffffffffffffffffffffffff021916908373ffffffffffffffffffffffffffffffffffffffff1602179055503480156200006657600080fd5b5060405180610100016040528060008152602001600073ffffffffffffffffffffffffffffffffffffffff1681526020017368a99f89e475a078645f4bac491360afe255dff173ffffffffffffffffffffffffffffffffffffffff1681526020016000815260200163b43e940081526020016305f5e0ff81526020016000151581526020016040518060400160405280600481526020017f4e6f6e65000000000000000000000000000000000000000000000000000000008152508152506000808081526020019081526020016000206000820151816000015560208201518160010160006101000a81548173ffffffffffffffffffffffffffffffffffffffff021916908373ffffffffffffffffffffffffffffffffffffffff16021790555060408201518160020160006101000a81548173ffffffffffffffffffffffffffffffffffffffff021916908373ffffffffffffffffffffffffffffffffffffffff160217905550606082015181600301556080820151816004015560a0820151816005015560c08201518160060160006101000a81548160ff02191690831515021790555060e08201518160070190805190602001906200022a9291906200033d565b509050506040518060400160405280600073ffffffffffffffffffffffffffffffffffffffff1681526020016040518060400160405280600481526020017f4e6f6e6500000000000000000000000000000000000000000000000000000000815250815250600160008073ffffffffffffffffffffffffffffffffffffffff1673ffffffffffffffffffffffffffffffffffffffff16815260200190815260200160002060008201518160000160006101000a81548173ffffffffffffffffffffffffffffffffffffffff021916908373ffffffffffffffffffffffffffffffffffffffff1602179055506020820151816001019080519060200190620003339291906200033d565b5090505062000452565b8280546200034b90620003ed565b90600052602060002090601f0160209004810192826200036f5760008555620003bb565b82601f106200038a57805160ff1916838001178555620003bb565b82800160010185558215620003bb579182015b82811115620003ba5782518255916020019190600101906200039d565b5b509050620003ca9190620003ce565b5090565b5b80821115620003e9576000816000905550600101620003cf565b5090565b600060028204905060018216806200040657607f821691505b602082108114156200041d576200041c62000423565b5b50919050565b7f4e487b7100000000000000000000000000000000000000000000000000000000600052602260045260246000fd5b6121a880620004626000396000f3fe6080604052600436106100865760003560e01c806376378e561161005957806376378e561461016c578063937d7f1114610195578063b18540ec146101c0578063bfcfb43714610204578063d4b193ae1461022d57610086565b8063286908ce1461008b57806338227856146100b45780634a3a372b146100f257806368c24ed91461012f575b600080fd5b34801561009757600080fd5b506100b260048036038101906100ad91906113a9565b610249565b005b3480156100c057600080fd5b506100db60048036038101906100d69190611380565b6103ed565b6040516100e9929190611844565b60405180910390f35b3480156100fe57600080fd5b5061011960048036038101906101149190611380565b6104b9565b6040516101269190611a14565b60405180910390f35b34801561013b57600080fd5b50610156600480360381019061015191906113a9565b6105fa565b6040516101639190611a36565b60405180910390f35b34801561017857600080fd5b50610193600480360381019061018e91906113d2565b6107a8565b005b3480156101a157600080fd5b506101aa610bbe565b6040516101b79190611829565b60405180910390f35b3480156101cc57600080fd5b506101e760048036038101906101e291906113a9565b610be4565b6040516101fb989796959493929190611a9c565b60405180910390f35b34801561021057600080fd5b5061022b600480360381019061022691906113a9565b610d01565b005b610247600480360381019061024291906113a9565b610e0f565b005b600080600083815260200190815260200160002090508060010160009054906101000a900473ffffffffffffffffffffffffffffffffffffffff1673ffffffffffffffffffffffffffffffffffffffff163373ffffffffffffffffffffffffffffffffffffffff16146102f1576040517f08c379a00000000000000000000000000000000000000000000000000000000081526004016102e8906118f4565b60405180910390fd5b600015158160060160009054906101000a900460ff161515141561034a576040517f08c379a000000000000000000000000000000000000000000000000000000000815260040161034190611874565b60405180910390fd5b6000816005015411610391576040517f08c379a0000000000000000000000000000000000000000000000000000000008152600401610388906119b4565b60405180910390fd5b60008160060160006101000a81548160ff0219169083151502179055507fe5ef88f55e289e73b002942129bfa46b917bac4fbc762cc957339ba6c5f128e181600001546040516103e19190611a58565b60405180910390a15050565b60016020528060005260406000206000915090508060000160009054906101000a900473ffffffffffffffffffffffffffffffffffffffff169080600101805461043690611d24565b80601f016020809104026020016040519081016040528092919081815260200182805461046290611d24565b80156104af5780601f10610484576101008083540402835291602001916104af565b820191906000526020600020905b81548152906001019060200180831161049257829003601f168201915b5050505050905082565b6104c16111a8565b600160008373ffffffffffffffffffffffffffffffffffffffff1673ffffffffffffffffffffffffffffffffffffffff1681526020019081526020016000206040518060400160405290816000820160009054906101000a900473ffffffffffffffffffffffffffffffffffffffff1673ffffffffffffffffffffffffffffffffffffffff1673ffffffffffffffffffffffffffffffffffffffff16815260200160018201805461057190611d24565b80601f016020809104026020016040519081016040528092919081815260200182805461059d90611d24565b80156105ea5780601f106105bf576101008083540402835291602001916105ea565b820191906000526020600020905b8154815290600101906020018083116105cd57829003601f168201915b5050505050815250509050919050565b6106026111d8565b60008083815260200190815260200160002060405180610100016040529081600082015481526020016001820160009054906101000a900473ffffffffffffffffffffffffffffffffffffffff1673ffffffffffffffffffffffffffffffffffffffff1673ffffffffffffffffffffffffffffffffffffffff1681526020016002820160009054906101000a900473ffffffffffffffffffffffffffffffffffffffff1673ffffffffffffffffffffffffffffffffffffffff1673ffffffffffffffffffffffffffffffffffffffff1681526020016003820154815260200160048201548152602001600582015481526020016006820160009054906101000a900460ff1615151515815260200160078201805461071f90611d24565b80601f016020809104026020016040519081016040528092919081815260200182805461074b90611d24565b80156107985780601f1061076d57610100808354040283529160200191610798565b820191906000526020600020905b81548152906001019060200180831161077b57829003601f168201915b5050505050815250509050919050565b60008614156107ec576040517f08c379a00000000000000000000000000000000000000000000000000000000081526004016107e3906119d4565b60405180910390fd5b600073ffffffffffffffffffffffffffffffffffffffff163373ffffffffffffffffffffffffffffffffffffffff16141561085c576040517f08c379a0000000000000000000000000000000000000000000000000000000008152600401610853906118b4565b60405180910390fd5b6000851161089f576040517f08c379a0000000000000000000000000000000000000000000000000000000008152600401610896906119f4565b60405180910390fd5b600084116108e2576040517f08c379a00000000000000000000000000000000000000000000000000000000081526004016108d9906118d4565b60405180910390fd5b60008311610925576040517f08c379a000000000000000000000000000000000000000000000000000000000815260040161091c90611894565b60405180910390fd5b60008060008881526020019081526020016000209050600073ffffffffffffffffffffffffffffffffffffffff168160010160009054906101000a900473ffffffffffffffffffffffffffffffffffffffff1673ffffffffffffffffffffffffffffffffffffffff16146109ce576040517f08c379a00000000000000000000000000000000000000000000000000000000081526004016109c590611994565b60405180910390fd5b60007368a99f89e475a078645f4bac491360afe255dff190506040518061010001604052808981526020013373ffffffffffffffffffffffffffffffffffffffff1681526020018273ffffffffffffffffffffffffffffffffffffffff1681526020018881526020016201518088610a469190611bfa565b42610a519190611ba4565b8152602001868152602001600015158152602001858152506000808a81526020019081526020016000206000820151816000015560208201518160010160006101000a81548173ffffffffffffffffffffffffffffffffffffffff021916908373ffffffffffffffffffffffffffffffffffffffff16021790555060408201518160020160006101000a81548173ffffffffffffffffffffffffffffffffffffffff021916908373ffffffffffffffffffffffffffffffffffffffff160217905550606082015181600301556080820151816004015560a0820151816005015560c08201518160060160006101000a81548160ff02191690831515021790555060e0820151816007019080519060200190610b6d92919061124b565b509050507fff6cb4f77c0e74b5150dcce6b081605e74c6ac834288a634eecb40278f532de18833604051610ba2929190611a73565b60405180910390a1610bb43384611028565b5050505050505050565b600260009054906101000a900473ffffffffffffffffffffffffffffffffffffffff1681565b60006020528060005260406000206000915090508060000154908060010160009054906101000a900473ffffffffffffffffffffffffffffffffffffffff16908060020160009054906101000a900473ffffffffffffffffffffffffffffffffffffffff16908060030154908060040154908060050154908060060160009054906101000a900460ff1690806007018054610c7e90611d24565b80601f0160208091040260200160405190810160405280929190818152602001828054610caa90611d24565b8015610cf75780601f10610ccc57610100808354040283529160200191610cf7565b820191906000526020600020905b815481529060010190602001808311610cda57829003601f168201915b5050505050905088565b600080600083815260200190815260200160002090508060010160009054906101000a900473ffffffffffffffffffffffffffffffffffffffff1673ffffffffffffffffffffffffffffffffffffffff163373ffffffffffffffffffffffffffffffffffffffff1614610da9576040517f08c379a0000000000000000000000000000000000000000000000000000000008152600401610da0906118f4565b60405180910390fd5b600115158160060160009054906101000a900460ff1615151415610e02576040517f08c379a0000000000000000000000000000000000000000000000000000000008152600401610df990611914565b60405180910390fd5b610e0b82611136565b5050565b600080600083815260200190815260200160002090506000816005015490506000428360040154610e409190611c54565b11610e80576040517f08c379a0000000000000000000000000000000000000000000000000000000008152600401610e7790611974565b60405180910390fd5b600115158260060160009054906101000a900460ff1615151415610ed9576040517f08c379a0000000000000000000000000000000000000000000000000000000008152600401610ed090611934565b60405180910390fd5b60008111610f1c576040517f08c379a0000000000000000000000000000000000000000000000000000000008152600401610f13906119b4565b60405180910390fd5b8160030154341015610f63576040517f08c379a0000000000000000000000000000000000000000000000000000000008152600401610f5a90611954565b60405180910390fd5b60008260020160009054906101000a900473ffffffffffffffffffffffffffffffffffffffff1690508073ffffffffffffffffffffffffffffffffffffffff166108fc349081150290604051600060405180830381858888f19350505050158015610fd2573d6000803e3d6000fd5b5060018360050154610fe49190611c54565b836005018190555060008360050154148061100f5750600042846004015461100c9190611c54565b11155b15611022576110218360000154611136565b5b50505050565b60405180604001604052808373ffffffffffffffffffffffffffffffffffffffff16815260200182815250600160008473ffffffffffffffffffffffffffffffffffffffff1673ffffffffffffffffffffffffffffffffffffffff16815260200190815260200160002060008201518160000160006101000a81548173ffffffffffffffffffffffffffffffffffffffff021916908373ffffffffffffffffffffffffffffffffffffffff16021790555060208201518160010190805190602001906110f592919061124b565b509050507fe0dab24151a74b4f9a5c74d4297bb2bece8b25b60cf1cccd43673a74e6aabc4f828260405161112a929190611844565b60405180910390a15050565b6000806000838152602001908152602001600020905060018160060160006101000a81548160ff0219169083151502179055507f2411008cf2893f256936ba4232bdbee203d1b02099327c50bb91f7893be06fe0816000015460405161119c9190611a58565b60405180910390a15050565b6040518060400160405280600073ffffffffffffffffffffffffffffffffffffffff168152602001606081525090565b60405180610100016040528060008152602001600073ffffffffffffffffffffffffffffffffffffffff168152602001600073ffffffffffffffffffffffffffffffffffffffff168152602001600081526020016000815260200160008152602001600015158152602001606081525090565b82805461125790611d24565b90600052602060002090601f01602090048101928261127957600085556112c0565b82601f1061129257805160ff19168380011785556112c0565b828001600101855582156112c0579182015b828111156112bf5782518255916020019190600101906112a4565b5b5090506112cd91906112d1565b5090565b5b808211156112ea5760008160009055506001016112d2565b5090565b60006113016112fc84611b46565b611b21565b90508281526020810184848401111561131957600080fd5b611324848285611ce2565b509392505050565b60008135905061133b81612144565b92915050565b600082601f83011261135257600080fd5b81356113628482602086016112ee565b91505092915050565b60008135905061137a8161215b565b92915050565b60006020828403121561139257600080fd5b60006113a08482850161132c565b91505092915050565b6000602082840312156113bb57600080fd5b60006113c98482850161136b565b91505092915050565b60008060008060008060c087890312156113eb57600080fd5b60006113f989828a0161136b565b965050602061140a89828a0161136b565b955050604061141b89828a0161136b565b945050606061142c89828a0161136b565b935050608087013567ffffffffffffffff81111561144957600080fd5b61145589828a01611341565b92505060a087013567ffffffffffffffff81111561147257600080fd5b61147e89828a01611341565b9150509295509295509295565b61149481611c9a565b82525050565b6114a381611c9a565b82525050565b6114b281611c88565b82525050565b6114c181611c88565b82525050565b6114d081611cac565b82525050565b6114df81611cac565b82525050565b60006114f082611b77565b6114fa8185611b82565b935061150a818560208601611cf1565b61151381611e14565b840191505092915050565b600061152982611b77565b6115338185611b93565b9350611543818560208601611cf1565b61154c81611e14565b840191505092915050565b6000611564601a83611b93565b915061156f82611e25565b602082019050919050565b6000611587602783611b93565b915061159282611e4e565b604082019050919050565b60006115aa602583611b93565b91506115b582611e9d565b604082019050919050565b60006115cd602f83611b93565b91506115d882611eec565b604082019050919050565b60006115f0601c83611b93565b91506115fb82611f3b565b602082019050919050565b6000611613601b83611b93565b915061161e82611f64565b602082019050919050565b6000611636601383611b93565b915061164182611f8d565b602082019050919050565b6000611659603e83611b93565b915061166482611fb6565b604082019050919050565b600061167c601383611b93565b915061168782612005565b602082019050919050565b600061169f602d83611b93565b91506116aa8261202e565b604082019050919050565b60006116c2602783611b93565b91506116cd8261207d565b604082019050919050565b60006116e5602383611b93565b91506116f0826120cc565b604082019050919050565b6000611708601783611b93565b91506117138261211b565b602082019050919050565b600060408301600083015161173660008601826114a9565b506020830151848203602086015261174e82826114e5565b9150508091505092915050565b600061010083016000830151611774600086018261180b565b50602083015161178760208601826114a9565b50604083015161179a604086018261148b565b5060608301516117ad606086018261180b565b5060808301516117c0608086018261180b565b5060a08301516117d360a086018261180b565b5060c08301516117e660c08601826114c7565b5060e083015184820360e08601526117fe82826114e5565b9150508091505092915050565b61181481611cd8565b82525050565b61182381611cd8565b82525050565b600060208201905061183e60008301846114b8565b92915050565b600060408201905061185960008301856114b8565b818103602083015261186b818461151e565b90509392505050565b6000602082019050818103600083015261188d81611557565b9050919050565b600060208201905081810360008301526118ad8161157a565b9050919050565b600060208201905081810360008301526118cd8161159d565b9050919050565b600060208201905081810360008301526118ed816115c0565b9050919050565b6000602082019050818103600083015261190d816115e3565b9050919050565b6000602082019050818103600083015261192d81611606565b9050919050565b6000602082019050818103600083015261194d81611629565b9050919050565b6000602082019050818103600083015261196d8161164c565b9050919050565b6000602082019050818103600083015261198d8161166f565b9050919050565b600060208201905081810360008301526119ad81611692565b9050919050565b600060208201905081810360008301526119cd816116b5565b9050919050565b600060208201905081810360008301526119ed816116d8565b9050919050565b60006020820190508181036000830152611a0d816116fb565b9050919050565b60006020820190508181036000830152611a2e818461171e565b905092915050565b60006020820190508181036000830152611a50818461175b565b905092915050565b6000602082019050611a6d600083018461181a565b92915050565b6000604082019050611a88600083018561181a565b611a9560208301846114b8565b9392505050565b600061010082019050611ab2600083018b61181a565b611abf602083018a6114b8565b611acc604083018961149a565b611ad9606083018861181a565b611ae6608083018761181a565b611af360a083018661181a565b611b0060c08301856114d6565b81810360e0830152611b12818461151e565b90509998505050505050505050565b6000611b2b611b3c565b9050611b378282611d56565b919050565b6000604051905090565b600067ffffffffffffffff821115611b6157611b60611de5565b5b611b6a82611e14565b9050602081019050919050565b600081519050919050565b600082825260208201905092915050565b600082825260208201905092915050565b6000611baf82611cd8565b9150611bba83611cd8565b9250827fffffffffffffffffffffffffffffffffffffffffffffffffffffffffffffffff03821115611bef57611bee611d87565b5b828201905092915050565b6000611c0582611cd8565b9150611c1083611cd8565b9250817fffffffffffffffffffffffffffffffffffffffffffffffffffffffffffffffff0483118215151615611c4957611c48611d87565b5b828202905092915050565b6000611c5f82611cd8565b9150611c6a83611cd8565b925082821015611c7d57611c7c611d87565b5b828203905092915050565b6000611c9382611cb8565b9050919050565b6000611ca582611cb8565b9050919050565b60008115159050919050565b600073ffffffffffffffffffffffffffffffffffffffff82169050919050565b6000819050919050565b82818337600083830152505050565b60005b83811015611d0f578082015181840152602081019050611cf4565b83811115611d1e576000848401525b50505050565b60006002820490506001821680611d3c57607f821691505b60208210811415611d5057611d4f611db6565b5b50919050565b611d5f82611e14565b810181811067ffffffffffffffff82111715611d7e57611d7d611de5565b5b80604052505050565b7f4e487b7100000000000000000000000000000000000000000000000000000000600052601160045260246000fd5b7f4e487b7100000000000000000000000000000000000000000000000000000000600052602260045260246000fd5b7f4e487b7100000000000000000000000000000000000000000000000000000000600052604160045260246000fd5b6000601f19601f8301169050919050565b7f5365727669636520697320616c726561647920656e61626c6564000000000000600082015250565b7f416d6f756e74206f662053657276696365732070726f7669646564206e6f742060008201527f656e746572656400000000000000000000000000000000000000000000000000602082015250565b7f536572766963652050726f76696465722063616e6e6f7420626520616464726560008201527f7373283029000000000000000000000000000000000000000000000000000000602082015250565b7f4475726174696f6e206f662053657276696365206d757374206265206772656160008201527f746572207468616e203020646179730000000000000000000000000000000000602082015250565b7f596f7520617265206e6f7420536572766963652050726f766964657200000000600082015250565b7f5365727669636520697320616c72656164792064697361626c65640000000000600082015250565b7f536572766963652069732064697361626c656400000000000000000000000000600082015250565b7f446f6e6174696f6e20416d6f756e74206d75737420626520677265617465722060008201527f7468616e206f7220657175616c20746f206d696e696d756d2076616c75650000602082015250565b7f5365727669636520686173206578706972656400000000000000000000000000600082015250565b7f546865726520697320616c72656164792061205365727669636520696e20746860008201527f6973205365727669636520494400000000000000000000000000000000000000602082015250565b7f416c6c20617661696c61626c652073657276696365732068617665206265656e60008201527f206d696e74656400000000000000000000000000000000000000000000000000602082015250565b7f53657276696365204944203020697320666f722064656661756c7420274e6f6e60008201527f6527200000000000000000000000000000000000000000000000000000000000602082015250565b7f646f6e6174696f6e206973206e6f7420656e7465726564000000000000000000600082015250565b61214d81611c88565b811461215857600080fd5b50565b61216481611cd8565b811461216f57600080fd5b5056fea2646970667358221220aa2dfc9150ab8171b2e9904ed3015d688aa253569bb5728e111edc3d3b83becc64736f6c63430008010033",
  "immutableReferences": {},
  "source": "//SPDX-License-Identifier: MIT\npragma solidity ^0.8.0;\nimport \"@openzeppelin/contracts/token/ERC721/ERC721.sol\";\ncontract Cryptocares {\n    \n    struct Services{\n        \n        uint256 service_id;\n        address service_provider;\n        address payable NGOaddress;\n        uint256 minimum_donation_amount;\n        uint256 duration;\n        uint256 amountOfServices;\n        bool service_disable;\n        string description;\n        \n    }\n    \n    struct Service_Provider{\n        \n        address service_provider;\n        string uri;\n        \n        \n    }\n    \n    mapping(uint256 => Services) public Services_list;\n    mapping(address => Service_Provider) public Service_Providers;\n    address public NGO = 0x68A99f89E475a078645f4BAC491360aFe255Dff1; //address of COVID CryptoRelief India Fund\n\n    \n    event ServiceAdded(uint service_id, address service_provider);\n    event ServiceDisabled(uint service_id);\n    event ServiceEnabled(uint service_id);\n    event ServiceProviderAdded(address service_provider,string uri);\n    \n    function _addServiceProvider(\n                                address service_provider,\n                                string memory uri\n                                 ) private {\n                                     Service_Providers[service_provider]=Service_Provider(service_provider,uri);\n                                     emit ServiceProviderAdded(service_provider,uri);\n                                 }\n    \n    function Add_Services(\n                        uint256 _service_id, \n                        uint256 _minimum_donation_amount,\n                        uint256 _duration,\n                        uint256 _amountOfServices,\n                        string memory _description,\n                        string memory _contactURI) public {\n                            \n                    require(_service_id != 0, \"Service ID 0 is for default 'None' \");\n                    require(msg.sender != address(0), \"Service Provider cannot be address(0)\");\n                    require(_minimum_donation_amount>0, \"donation is not entered\");\n                    require(_duration > 0, \"Duration of Service must be greater than 0 days\");\n                    require(_amountOfServices > 0, \"Amount of Services provided not entered\");\n                    Services storage service = Services_list[_service_id];\n                    require(service.service_provider == address(0), \"There is already a Service in this Service ID\");\n                    \n                    address payable _NGOaddress = payable(address(0x68A99f89E475a078645f4BAC491360aFe255Dff1)); //address of COVID CryptoRelief India Fund\n                    \n                    Services_list[_service_id] = Services( _service_id,\n                                                           msg.sender,\n                                                           _NGOaddress,\n                                                           _minimum_donation_amount,\n                                                           (block.timestamp + _duration * 1 days),\n                                                           _amountOfServices,\n                                                           false,\n                                                           _description);\n                    \n                    emit ServiceAdded(_service_id,msg.sender);\n                    \n                    _addServiceProvider(msg.sender, _contactURI);\n                    \n                    }\n                    \n    constructor() {\n        Services_list[0] = Services(0, \n                                address(0), \n                                payable(address(0x68A99f89E475a078645f4BAC491360aFe255Dff1)), \n                                0, \n                                5000 weeks, \n                                99999999, \n                                false, \n                                \"None\");\n                                \n        Service_Providers[address(0)] = Service_Provider(address(0), \"None\");\n    }\n                        \n    function Avail_Service(uint256 id) payable public\n    {\n       Services storage service = Services_list[id];\n       uint256 _amountOfServices = service.amountOfServices;\n       require(service.duration - block.timestamp > 0, \"Service has expired\");\n       require(service.service_disable != true, \"Service is disabled\"); // service should not be disabled\n       require(_amountOfServices > 0, \"All available services have been minted\"); // amount of services should not be depleted\n       require(msg.value >= service.minimum_donation_amount, \"Donation Amount must be greater than or equal to minimum value\"); // donation amount sent must be above minimum_donation_amount\n       address payable _toNGO = service.NGOaddress;\n       _toNGO.transfer(msg.value);\n       service.amountOfServices = service.amountOfServices - 1;\n       \n       if(service.amountOfServices == 0 || service.duration - block.timestamp <= 0){\n            _disableService(service.service_id);\n       }\n        //mint NFT\n    }\n    \n    function Disable_Service(uint256 id) public {\n        \n        Services storage service = Services_list[id];\n        \n        require(msg.sender == service.service_provider,\"You are not Service Provider\");\n        require(service.service_disable!=true,\"Service is already disabled\");\n        \n        _disableService(id);\n        \n        \n    }\n    \n    function _disableService(uint256 id) private {\n        Services storage service = Services_list[id];\n        \n        service.service_disable=true;\n        emit ServiceDisabled(service.service_id);\n    }\n    \n    function Enable_Service(uint256 id) public {\n        \n        Services storage service = Services_list[id];\n        \n        require(msg.sender == service.service_provider,\"You are not Service Provider\");\n        require(service.service_disable!=false,\"Service is already enabled\");\n        require(service.amountOfServices > 0, \"All available services have been minted\");\n        \n        service.service_disable=false;\n        \n        emit ServiceEnabled(service.service_id);\n        \n    }\n    \n    function Get_Service(uint256 id) public view returns(Services memory){\n        return Services_list[id];\n    }\n    \n    function Get_ServiceProvider(address service_provider) public view returns(Service_Provider memory){\n        return Service_Providers[service_provider];\n    }\n    \n}\n\n\n",
  "sourcePath": "/home/aditya/Desktop/Cryptocares/crypto-cares/contracts/CryptoCares.sol",
  "compiler": {
    "name": "solc",
    "version": "0.8.1+commit.df193b15.Emscripten.clang"
  },
  "schemaVersion": "3.3.4",
  "updatedAt": "2021-05-20T10:04:24.943Z",
  "devdoc": {
    "kind": "dev",
    "methods": {},
    "version": 1
  },
  "userdoc": {
    "kind": "user",
    "methods": {},
    "version": 1
  }
}