{
  "contractName": "Crypto_Care_NFT",
  "abi": [
    {
      "inputs": [
        {
          "internalType": "string",
          "name": "_name",
          "type": "string"
        },
        {
          "internalType": "string",
          "name": "_symbol",
          "type": "string"
        }
      ],
      "stateMutability": "nonpayable",
      "type": "constructor"
    },
    {
      "anonymous": false,
      "inputs": [
        {
          "indexed": true,
          "internalType": "address",
          "name": "owner",
          "type": "address"
        },
        {
          "indexed": true,
          "internalType": "address",
          "name": "approved",
          "type": "address"
        },
        {
          "indexed": true,
          "internalType": "uint256",
          "name": "tokenId",
          "type": "uint256"
        }
      ],
      "name": "Approval",
      "type": "event"
    },
    {
      "anonymous": false,
      "inputs": [
        {
          "indexed": true,
          "internalType": "address",
          "name": "owner",
          "type": "address"
        },
        {
          "indexed": true,
          "internalType": "address",
          "name": "operator",
          "type": "address"
        },
        {
          "indexed": false,
          "internalType": "bool",
          "name": "approved",
          "type": "bool"
        }
      ],
      "name": "ApprovalForAll",
      "type": "event"
    },
    {
      "anonymous": false,
      "inputs": [
        {
          "indexed": true,
          "internalType": "address",
          "name": "previousOwner",
          "type": "address"
        },
        {
          "indexed": true,
          "internalType": "address",
          "name": "newOwner",
          "type": "address"
        }
      ],
      "name": "OwnershipTransferred",
      "type": "event"
    },
    {
      "anonymous": false,
      "inputs": [
        {
          "indexed": true,
          "internalType": "address",
          "name": "from",
          "type": "address"
        },
        {
          "indexed": true,
          "internalType": "address",
          "name": "to",
          "type": "address"
        },
        {
          "indexed": true,
          "internalType": "uint256",
          "name": "tokenId",
          "type": "uint256"
        }
      ],
      "name": "Transfer",
      "type": "event"
    },
    {
      "inputs": [
        {
          "internalType": "address",
          "name": "to",
          "type": "address"
        },
        {
          "internalType": "uint256",
          "name": "tokenId",
          "type": "uint256"
        }
      ],
      "name": "approve",
      "outputs": [],
      "stateMutability": "nonpayable",
      "type": "function"
    },
    {
      "inputs": [
        {
          "internalType": "address",
          "name": "owner",
          "type": "address"
        }
      ],
      "name": "balanceOf",
      "outputs": [
        {
          "internalType": "uint256",
          "name": "",
          "type": "uint256"
        }
      ],
      "stateMutability": "view",
      "type": "function"
    },
    {
      "inputs": [
        {
          "internalType": "uint256",
          "name": "tokenId",
          "type": "uint256"
        }
      ],
      "name": "getApproved",
      "outputs": [
        {
          "internalType": "address",
          "name": "",
          "type": "address"
        }
      ],
      "stateMutability": "view",
      "type": "function"
    },
    {
      "inputs": [
        {
          "internalType": "address",
          "name": "owner",
          "type": "address"
        },
        {
          "internalType": "address",
          "name": "operator",
          "type": "address"
        }
      ],
      "name": "isApprovedForAll",
      "outputs": [
        {
          "internalType": "bool",
          "name": "",
          "type": "bool"
        }
      ],
      "stateMutability": "view",
      "type": "function"
    },
    {
      "inputs": [],
      "name": "name",
      "outputs": [
        {
          "internalType": "string",
          "name": "",
          "type": "string"
        }
      ],
      "stateMutability": "view",
      "type": "function"
    },
    {
      "inputs": [],
      "name": "owner",
      "outputs": [
        {
          "internalType": "address",
          "name": "",
          "type": "address"
        }
      ],
      "stateMutability": "view",
      "type": "function"
    },
    {
      "inputs": [
        {
          "internalType": "uint256",
          "name": "tokenId",
          "type": "uint256"
        }
      ],
      "name": "ownerOf",
      "outputs": [
        {
          "internalType": "address",
          "name": "",
          "type": "address"
        }
      ],
      "stateMutability": "view",
      "type": "function"
    },
    {
      "inputs": [],
      "name": "renounceOwnership",
      "outputs": [],
      "stateMutability": "nonpayable",
      "type": "function"
    },
    {
      "inputs": [
        {
          "internalType": "address",
          "name": "from",
          "type": "address"
        },
        {
          "internalType": "address",
          "name": "to",
          "type": "address"
        },
        {
          "internalType": "uint256",
          "name": "tokenId",
          "type": "uint256"
        }
      ],
      "name": "safeTransferFrom",
      "outputs": [],
      "stateMutability": "nonpayable",
      "type": "function"
    },
    {
      "inputs": [
        {
          "internalType": "address",
          "name": "from",
          "type": "address"
        },
        {
          "internalType": "address",
          "name": "to",
          "type": "address"
        },
        {
          "internalType": "uint256",
          "name": "tokenId",
          "type": "uint256"
        },
        {
          "internalType": "bytes",
          "name": "_data",
          "type": "bytes"
        }
      ],
      "name": "safeTransferFrom",
      "outputs": [],
      "stateMutability": "nonpayable",
      "type": "function"
    },
    {
      "inputs": [
        {
          "internalType": "address",
          "name": "operator",
          "type": "address"
        },
        {
          "internalType": "bool",
          "name": "approved",
          "type": "bool"
        }
      ],
      "name": "setApprovalForAll",
      "outputs": [],
      "stateMutability": "nonpayable",
      "type": "function"
    },
    {
      "inputs": [
        {
          "internalType": "bytes4",
          "name": "interfaceId",
          "type": "bytes4"
        }
      ],
      "name": "supportsInterface",
      "outputs": [
        {
          "internalType": "bool",
          "name": "",
          "type": "bool"
        }
      ],
      "stateMutability": "view",
      "type": "function"
    },
    {
      "inputs": [],
      "name": "symbol",
      "outputs": [
        {
          "internalType": "string",
          "name": "",
          "type": "string"
        }
      ],
      "stateMutability": "view",
      "type": "function"
    },
    {
      "inputs": [
        {
          "internalType": "address",
          "name": "from",
          "type": "address"
        },
        {
          "internalType": "address",
          "name": "to",
          "type": "address"
        },
        {
          "internalType": "uint256",
          "name": "tokenId",
          "type": "uint256"
        }
      ],
      "name": "transferFrom",
      "outputs": [],
      "stateMutability": "nonpayable",
      "type": "function"
    },
    {
      "inputs": [
        {
          "internalType": "address",
          "name": "newOwner",
          "type": "address"
        }
      ],
      "name": "transferOwnership",
      "outputs": [],
      "stateMutability": "nonpayable",
      "type": "function"
    },
    {
      "inputs": [
        {
          "internalType": "string",
          "name": "baseURI_",
          "type": "string"
        }
      ],
      "name": "setBaseURI",
      "outputs": [],
      "stateMutability": "nonpayable",
      "type": "function"
    },
    {
      "inputs": [
        {
          "internalType": "uint256",
          "name": "tokenId",
          "type": "uint256"
        }
      ],
      "name": "tokenURI",
      "outputs": [
        {
          "internalType": "string",
          "name": "",
          "type": "string"
        }
      ],
      "stateMutability": "view",
      "type": "function"
    },
    {
      "inputs": [
        {
          "internalType": "address",
          "name": "_to",
          "type": "address"
        },
        {
          "internalType": "uint256",
          "name": "_tokenId",
          "type": "uint256"
        },
        {
          "internalType": "string",
          "name": "tokenURI_",
          "type": "string"
        }
      ],
      "name": "mint",
      "outputs": [],
      "stateMutability": "nonpayable",
      "type": "function"
    }
  ],
  "bytecode": "0x60806040523480156200001157600080fd5b506040516200327838038062003278833981810160405281019062000037919062000250565b81818160009080519060200190620000519291906200012e565b5080600190805190602001906200006a9291906200012e565b50505060006200007f6200012660201b60201c565b905080600660006101000a81548173ffffffffffffffffffffffffffffffffffffffff021916908373ffffffffffffffffffffffffffffffffffffffff1602179055508073ffffffffffffffffffffffffffffffffffffffff16600073ffffffffffffffffffffffffffffffffffffffff167f8be0079c531659141344cd1fd0a4f28419497f9722a3daafe3b4186f6b6457e060405160405180910390a350505062000433565b600033905090565b8280546200013c9062000358565b90600052602060002090601f016020900481019282620001605760008555620001ac565b82601f106200017b57805160ff1916838001178555620001ac565b82800160010185558215620001ac579182015b82811115620001ab5782518255916020019190600101906200018e565b5b509050620001bb9190620001bf565b5090565b5b80821115620001da576000816000905550600101620001c0565b5090565b6000620001f5620001ef84620002ec565b620002c3565b9050828152602081018484840111156200020e57600080fd5b6200021b84828562000322565b509392505050565b600082601f8301126200023557600080fd5b815162000247848260208601620001de565b91505092915050565b600080604083850312156200026457600080fd5b600083015167ffffffffffffffff8111156200027f57600080fd5b6200028d8582860162000223565b925050602083015167ffffffffffffffff811115620002ab57600080fd5b620002b98582860162000223565b9150509250929050565b6000620002cf620002e2565b9050620002dd82826200038e565b919050565b6000604051905090565b600067ffffffffffffffff8211156200030a5762000309620003f3565b5b620003158262000422565b9050602081019050919050565b60005b838110156200034257808201518184015260208101905062000325565b8381111562000352576000848401525b50505050565b600060028204905060018216806200037157607f821691505b60208210811415620003885762000387620003c4565b5b50919050565b620003998262000422565b810181811067ffffffffffffffff82111715620003bb57620003ba620003f3565b5b80604052505050565b7f4e487b7100000000000000000000000000000000000000000000000000000000600052602260045260246000fd5b7f4e487b7100000000000000000000000000000000000000000000000000000000600052604160045260246000fd5b6000601f19601f8301169050919050565b612e3580620004436000396000f3fe608060405234801561001057600080fd5b50600436106101165760003560e01c8063715018a6116100a2578063b88d4fde11610071578063b88d4fde146102cb578063c87b56dd146102e7578063d3fc986414610317578063e985e9c514610333578063f2fde38b1461036357610116565b8063715018a6146102695780638da5cb5b1461027357806395d89b4114610291578063a22cb465146102af57610116565b806323b872dd116100e957806323b872dd146101b557806342842e0e146101d157806355f804b3146101ed5780636352211e1461020957806370a082311461023957610116565b806301ffc9a71461011b57806306fdde031461014b578063081812fc14610169578063095ea7b314610199575b600080fd5b61013560048036038101906101309190611ec6565b61037f565b604051610142919061236f565b60405180910390f35b610153610461565b604051610160919061238a565b60405180910390f35b610183600480360381019061017e9190611f59565b6104f3565b6040516101909190612308565b60405180910390f35b6101b360048036038101906101ae9190611e23565b610578565b005b6101cf60048036038101906101ca9190611d1d565b610690565b005b6101eb60048036038101906101e69190611d1d565b6106f0565b005b61020760048036038101906102029190611f18565b610710565b005b610223600480360381019061021e9190611f59565b6107a6565b6040516102309190612308565b60405180910390f35b610253600480360381019061024e9190611cb8565b610858565b60405161026091906125cc565b60405180910390f35b610271610910565b005b61027b610a4d565b6040516102889190612308565b60405180910390f35b610299610a77565b6040516102a6919061238a565b60405180910390f35b6102c960048036038101906102c49190611de7565b610b09565b005b6102e560048036038101906102e09190611d6c565b610c8a565b005b61030160048036038101906102fc9190611f59565b610cec565b60405161030e919061238a565b60405180910390f35b610331600480360381019061032c9190611e5f565b610e57565b005b61034d60048036038101906103489190611ce1565b610eec565b60405161035a919061236f565b60405180910390f35b61037d60048036038101906103789190611cb8565b610f80565b005b60007f80ac58cd000000000000000000000000000000000000000000000000000000007bffffffffffffffffffffffffffffffffffffffffffffffffffffffff1916827bffffffffffffffffffffffffffffffffffffffffffffffffffffffff1916148061044a57507f5b5e139f000000000000000000000000000000000000000000000000000000007bffffffffffffffffffffffffffffffffffffffffffffffffffffffff1916827bffffffffffffffffffffffffffffffffffffffffffffffffffffffff1916145b8061045a57506104598261112c565b5b9050919050565b606060008054610470906127f1565b80601f016020809104026020016040519081016040528092919081815260200182805461049c906127f1565b80156104e95780601f106104be576101008083540402835291602001916104e9565b820191906000526020600020905b8154815290600101906020018083116104cc57829003601f168201915b5050505050905090565b60006104fe82611196565b61053d576040517f08c379a0000000000000000000000000000000000000000000000000000000008152600401610534906124ec565b60405180910390fd5b6004600083815260200190815260200160002060009054906101000a900473ffffffffffffffffffffffffffffffffffffffff169050919050565b6000610583826107a6565b90508073ffffffffffffffffffffffffffffffffffffffff168373ffffffffffffffffffffffffffffffffffffffff1614156105f4576040517f08c379a00000000000000000000000000000000000000000000000000000000081526004016105eb9061258c565b60405180910390fd5b8073ffffffffffffffffffffffffffffffffffffffff16610613611202565b73ffffffffffffffffffffffffffffffffffffffff16148061064257506106418161063c611202565b610eec565b5b610681576040517f08c379a00000000000000000000000000000000000000000000000000000000081526004016106789061246c565b60405180910390fd5b61068b838361120a565b505050565b6106a161069b611202565b826112c3565b6106e0576040517f08c379a00000000000000000000000000000000000000000000000000000000081526004016106d7906125ac565b60405180910390fd5b6106eb8383836113a1565b505050565b61070b83838360405180602001604052806000815250610c8a565b505050565b610718611202565b73ffffffffffffffffffffffffffffffffffffffff16610736610a4d565b73ffffffffffffffffffffffffffffffffffffffff161461078c576040517f08c379a00000000000000000000000000000000000000000000000000000000081526004016107839061252c565b60405180910390fd5b80600890805190602001906107a2929190611adc565b5050565b6000806002600084815260200190815260200160002060009054906101000a900473ffffffffffffffffffffffffffffffffffffffff169050600073ffffffffffffffffffffffffffffffffffffffff168173ffffffffffffffffffffffffffffffffffffffff16141561084f576040517f08c379a0000000000000000000000000000000000000000000000000000000008152600401610846906124ac565b60405180910390fd5b80915050919050565b60008073ffffffffffffffffffffffffffffffffffffffff168273ffffffffffffffffffffffffffffffffffffffff1614156108c9576040517f08c379a00000000000000000000000000000000000000000000000000000000081526004016108c09061248c565b60405180910390fd5b600360008373ffffffffffffffffffffffffffffffffffffffff1673ffffffffffffffffffffffffffffffffffffffff168152602001908152602001600020549050919050565b610918611202565b73ffffffffffffffffffffffffffffffffffffffff16610936610a4d565b73ffffffffffffffffffffffffffffffffffffffff161461098c576040517f08c379a00000000000000000000000000000000000000000000000000000000081526004016109839061252c565b60405180910390fd5b600073ffffffffffffffffffffffffffffffffffffffff16600660009054906101000a900473ffffffffffffffffffffffffffffffffffffffff1673ffffffffffffffffffffffffffffffffffffffff167f8be0079c531659141344cd1fd0a4f28419497f9722a3daafe3b4186f6b6457e060405160405180910390a36000600660006101000a81548173ffffffffffffffffffffffffffffffffffffffff021916908373ffffffffffffffffffffffffffffffffffffffff160217905550565b6000600660009054906101000a900473ffffffffffffffffffffffffffffffffffffffff16905090565b606060018054610a86906127f1565b80601f0160208091040260200160405190810160405280929190818152602001828054610ab2906127f1565b8015610aff5780601f10610ad457610100808354040283529160200191610aff565b820191906000526020600020905b815481529060010190602001808311610ae257829003601f168201915b5050505050905090565b610b11611202565b73ffffffffffffffffffffffffffffffffffffffff168273ffffffffffffffffffffffffffffffffffffffff161415610b7f576040517f08c379a0000000000000000000000000000000000000000000000000000000008152600401610b769061242c565b60405180910390fd5b8060056000610b8c611202565b73ffffffffffffffffffffffffffffffffffffffff1673ffffffffffffffffffffffffffffffffffffffff16815260200190815260200160002060008473ffffffffffffffffffffffffffffffffffffffff1673ffffffffffffffffffffffffffffffffffffffff16815260200190815260200160002060006101000a81548160ff0219169083151502179055508173ffffffffffffffffffffffffffffffffffffffff16610c39611202565b73ffffffffffffffffffffffffffffffffffffffff167f17307eab39ab6107e8899845ad3d59bd9653f200f220920489ca2b5937696c3183604051610c7e919061236f565b60405180910390a35050565b610c9b610c95611202565b836112c3565b610cda576040517f08c379a0000000000000000000000000000000000000000000000000000000008152600401610cd1906125ac565b60405180910390fd5b610ce6848484846115fd565b50505050565b6060610cf782611196565b610d36576040517f08c379a0000000000000000000000000000000000000000000000000000000008152600401610d2d9061256c565b60405180910390fd5b6000600760008481526020019081526020016000208054610d56906127f1565b80601f0160208091040260200160405190810160405280929190818152602001828054610d82906127f1565b8015610dcf5780601f10610da457610100808354040283529160200191610dcf565b820191906000526020600020905b815481529060010190602001808311610db257829003601f168201915b505050505090506000610de0611659565b9050600081511415610df6578192505050610e52565b600082511115610e2b578082604051602001610e139291906122bc565b60405160208183030381529060405292505050610e52565b8084604051602001610e3e9291906122e0565b604051602081830303815290604052925050505b919050565b610e5f611202565b73ffffffffffffffffffffffffffffffffffffffff16610e7d610a4d565b73ffffffffffffffffffffffffffffffffffffffff1614610ed3576040517f08c379a0000000000000000000000000000000000000000000000000000000008152600401610eca9061252c565b60405180910390fd5b610edd83836116eb565b610ee782826118b9565b505050565b6000600560008473ffffffffffffffffffffffffffffffffffffffff1673ffffffffffffffffffffffffffffffffffffffff16815260200190815260200160002060008373ffffffffffffffffffffffffffffffffffffffff1673ffffffffffffffffffffffffffffffffffffffff16815260200190815260200160002060009054906101000a900460ff16905092915050565b610f88611202565b73ffffffffffffffffffffffffffffffffffffffff16610fa6610a4d565b73ffffffffffffffffffffffffffffffffffffffff1614610ffc576040517f08c379a0000000000000000000000000000000000000000000000000000000008152600401610ff39061252c565b60405180910390fd5b600073ffffffffffffffffffffffffffffffffffffffff168173ffffffffffffffffffffffffffffffffffffffff16141561106c576040517f08c379a0000000000000000000000000000000000000000000000000000000008152600401611063906123cc565b60405180910390fd5b8073ffffffffffffffffffffffffffffffffffffffff16600660009054906101000a900473ffffffffffffffffffffffffffffffffffffffff1673ffffffffffffffffffffffffffffffffffffffff167f8be0079c531659141344cd1fd0a4f28419497f9722a3daafe3b4186f6b6457e060405160405180910390a380600660006101000a81548173ffffffffffffffffffffffffffffffffffffffff021916908373ffffffffffffffffffffffffffffffffffffffff16021790555050565b60007f01ffc9a7000000000000000000000000000000000000000000000000000000007bffffffffffffffffffffffffffffffffffffffffffffffffffffffff1916827bffffffffffffffffffffffffffffffffffffffffffffffffffffffff1916149050919050565b60008073ffffffffffffffffffffffffffffffffffffffff166002600084815260200190815260200160002060009054906101000a900473ffffffffffffffffffffffffffffffffffffffff1673ffffffffffffffffffffffffffffffffffffffff1614159050919050565b600033905090565b816004600083815260200190815260200160002060006101000a81548173ffffffffffffffffffffffffffffffffffffffff021916908373ffffffffffffffffffffffffffffffffffffffff160217905550808273ffffffffffffffffffffffffffffffffffffffff1661127d836107a6565b73ffffffffffffffffffffffffffffffffffffffff167f8c5be1e5ebec7d5bd14f71427d1e84f3dd0314c0f7b2291e5b200ac8c7c3b92560405160405180910390a45050565b60006112ce82611196565b61130d576040517f08c379a00000000000000000000000000000000000000000000000000000000081526004016113049061244c565b60405180910390fd5b6000611318836107a6565b90508073ffffffffffffffffffffffffffffffffffffffff168473ffffffffffffffffffffffffffffffffffffffff16148061138757508373ffffffffffffffffffffffffffffffffffffffff1661136f846104f3565b73ffffffffffffffffffffffffffffffffffffffff16145b8061139857506113978185610eec565b5b91505092915050565b8273ffffffffffffffffffffffffffffffffffffffff166113c1826107a6565b73ffffffffffffffffffffffffffffffffffffffff1614611417576040517f08c379a000000000000000000000000000000000000000000000000000000000815260040161140e9061254c565b60405180910390fd5b600073ffffffffffffffffffffffffffffffffffffffff168273ffffffffffffffffffffffffffffffffffffffff161415611487576040517f08c379a000000000000000000000000000000000000000000000000000000000815260040161147e9061240c565b60405180910390fd5b61149283838361192d565b61149d60008261120a565b6001600360008573ffffffffffffffffffffffffffffffffffffffff1673ffffffffffffffffffffffffffffffffffffffff16815260200190815260200160002060008282546114ed9190612707565b925050819055506001600360008473ffffffffffffffffffffffffffffffffffffffff1673ffffffffffffffffffffffffffffffffffffffff168152602001908152602001600020600082825461154491906126b1565b92505081905550816002600083815260200190815260200160002060006101000a81548173ffffffffffffffffffffffffffffffffffffffff021916908373ffffffffffffffffffffffffffffffffffffffff160217905550808273ffffffffffffffffffffffffffffffffffffffff168473ffffffffffffffffffffffffffffffffffffffff167fddf252ad1be2c89b69c2b068fc378daa952ba7f163c4a11628f55a4df523b3ef60405160405180910390a4505050565b6116088484846113a1565b61161484848484611932565b611653576040517f08c379a000000000000000000000000000000000000000000000000000000000815260040161164a906123ac565b60405180910390fd5b50505050565b606060088054611668906127f1565b80601f0160208091040260200160405190810160405280929190818152602001828054611694906127f1565b80156116e15780601f106116b6576101008083540402835291602001916116e1565b820191906000526020600020905b8154815290600101906020018083116116c457829003601f168201915b5050505050905090565b600073ffffffffffffffffffffffffffffffffffffffff168273ffffffffffffffffffffffffffffffffffffffff16141561175b576040517f08c379a0000000000000000000000000000000000000000000000000000000008152600401611752906124cc565b60405180910390fd5b61176481611196565b156117a4576040517f08c379a000000000000000000000000000000000000000000000000000000000815260040161179b906123ec565b60405180910390fd5b6117b06000838361192d565b6001600360008473ffffffffffffffffffffffffffffffffffffffff1673ffffffffffffffffffffffffffffffffffffffff168152602001908152602001600020600082825461180091906126b1565b92505081905550816002600083815260200190815260200160002060006101000a81548173ffffffffffffffffffffffffffffffffffffffff021916908373ffffffffffffffffffffffffffffffffffffffff160217905550808273ffffffffffffffffffffffffffffffffffffffff16600073ffffffffffffffffffffffffffffffffffffffff167fddf252ad1be2c89b69c2b068fc378daa952ba7f163c4a11628f55a4df523b3ef60405160405180910390a45050565b6118c282611196565b611901576040517f08c379a00000000000000000000000000000000000000000000000000000000081526004016118f89061250c565b60405180910390fd5b80600760008481526020019081526020016000209080519060200190611928929190611adc565b505050565b505050565b60006119538473ffffffffffffffffffffffffffffffffffffffff16611ac9565b15611abc578373ffffffffffffffffffffffffffffffffffffffff1663150b7a0261197c611202565b8786866040518563ffffffff1660e01b815260040161199e9493929190612323565b602060405180830381600087803b1580156119b857600080fd5b505af19250505080156119e957506040513d601f19601f820116820180604052508101906119e69190611eef565b60015b611a6c573d8060008114611a19576040519150601f19603f3d011682016040523d82523d6000602084013e611a1e565b606091505b50600081511415611a64576040517f08c379a0000000000000000000000000000000000000000000000000000000008152600401611a5b906123ac565b60405180910390fd5b805181602001fd5b63150b7a0260e01b7bffffffffffffffffffffffffffffffffffffffffffffffffffffffff1916817bffffffffffffffffffffffffffffffffffffffffffffffffffffffff191614915050611ac1565b600190505b949350505050565b600080823b905060008111915050919050565b828054611ae8906127f1565b90600052602060002090601f016020900481019282611b0a5760008555611b51565b82601f10611b2357805160ff1916838001178555611b51565b82800160010185558215611b51579182015b82811115611b50578251825591602001919060010190611b35565b5b509050611b5e9190611b62565b5090565b5b80821115611b7b576000816000905550600101611b63565b5090565b6000611b92611b8d8461260c565b6125e7565b905082815260208101848484011115611baa57600080fd5b611bb58482856127af565b509392505050565b6000611bd0611bcb8461263d565b6125e7565b905082815260208101848484011115611be857600080fd5b611bf38482856127af565b509392505050565b600081359050611c0a81612da3565b92915050565b600081359050611c1f81612dba565b92915050565b600081359050611c3481612dd1565b92915050565b600081519050611c4981612dd1565b92915050565b600082601f830112611c6057600080fd5b8135611c70848260208601611b7f565b91505092915050565b600082601f830112611c8a57600080fd5b8135611c9a848260208601611bbd565b91505092915050565b600081359050611cb281612de8565b92915050565b600060208284031215611cca57600080fd5b6000611cd884828501611bfb565b91505092915050565b60008060408385031215611cf457600080fd5b6000611d0285828601611bfb565b9250506020611d1385828601611bfb565b9150509250929050565b600080600060608486031215611d3257600080fd5b6000611d4086828701611bfb565b9350506020611d5186828701611bfb565b9250506040611d6286828701611ca3565b9150509250925092565b60008060008060808587031215611d8257600080fd5b6000611d9087828801611bfb565b9450506020611da187828801611bfb565b9350506040611db287828801611ca3565b925050606085013567ffffffffffffffff811115611dcf57600080fd5b611ddb87828801611c4f565b91505092959194509250565b60008060408385031215611dfa57600080fd5b6000611e0885828601611bfb565b9250506020611e1985828601611c10565b9150509250929050565b60008060408385031215611e3657600080fd5b6000611e4485828601611bfb565b9250506020611e5585828601611ca3565b9150509250929050565b600080600060608486031215611e7457600080fd5b6000611e8286828701611bfb565b9350506020611e9386828701611ca3565b925050604084013567ffffffffffffffff811115611eb057600080fd5b611ebc86828701611c79565b9150509250925092565b600060208284031215611ed857600080fd5b6000611ee684828501611c25565b91505092915050565b600060208284031215611f0157600080fd5b6000611f0f84828501611c3a565b91505092915050565b600060208284031215611f2a57600080fd5b600082013567ffffffffffffffff811115611f4457600080fd5b611f5084828501611c79565b91505092915050565b600060208284031215611f6b57600080fd5b6000611f7984828501611ca3565b91505092915050565b611f8b8161273b565b82525050565b611f9a8161274d565b82525050565b6000611fab8261266e565b611fb58185612684565b9350611fc58185602086016127be565b611fce816128eb565b840191505092915050565b6000611fe482612679565b611fee8185612695565b9350611ffe8185602086016127be565b612007816128eb565b840191505092915050565b600061201d82612679565b61202781856126a6565b93506120378185602086016127be565b80840191505092915050565b6000612050603283612695565b915061205b826128fc565b604082019050919050565b6000612073602683612695565b915061207e8261294b565b604082019050919050565b6000612096601c83612695565b91506120a18261299a565b602082019050919050565b60006120b9602483612695565b91506120c4826129c3565b604082019050919050565b60006120dc601983612695565b91506120e782612a12565b602082019050919050565b60006120ff602c83612695565b915061210a82612a3b565b604082019050919050565b6000612122603883612695565b915061212d82612a8a565b604082019050919050565b6000612145602a83612695565b915061215082612ad9565b604082019050919050565b6000612168602983612695565b915061217382612b28565b604082019050919050565b600061218b602083612695565b915061219682612b77565b602082019050919050565b60006121ae602c83612695565b91506121b982612ba0565b604082019050919050565b60006121d1602c83612695565b91506121dc82612bef565b604082019050919050565b60006121f4602083612695565b91506121ff82612c3e565b602082019050919050565b6000612217602983612695565b915061222282612c67565b604082019050919050565b600061223a602f83612695565b915061224582612cb6565b604082019050919050565b600061225d602183612695565b915061226882612d05565b604082019050919050565b6000612280603183612695565b915061228b82612d54565b604082019050919050565b61229f816127a5565b82525050565b6122b66122b1826127a5565b612854565b82525050565b60006122c88285612012565b91506122d48284612012565b91508190509392505050565b60006122ec8285612012565b91506122f882846122a5565b6020820191508190509392505050565b600060208201905061231d6000830184611f82565b92915050565b60006080820190506123386000830187611f82565b6123456020830186611f82565b6123526040830185612296565b81810360608301526123648184611fa0565b905095945050505050565b60006020820190506123846000830184611f91565b92915050565b600060208201905081810360008301526123a48184611fd9565b905092915050565b600060208201905081810360008301526123c581612043565b9050919050565b600060208201905081810360008301526123e581612066565b9050919050565b6000602082019050818103600083015261240581612089565b9050919050565b60006020820190508181036000830152612425816120ac565b9050919050565b60006020820190508181036000830152612445816120cf565b9050919050565b60006020820190508181036000830152612465816120f2565b9050919050565b6000602082019050818103600083015261248581612115565b9050919050565b600060208201905081810360008301526124a581612138565b9050919050565b600060208201905081810360008301526124c58161215b565b9050919050565b600060208201905081810360008301526124e58161217e565b9050919050565b60006020820190508181036000830152612505816121a1565b9050919050565b60006020820190508181036000830152612525816121c4565b9050919050565b60006020820190508181036000830152612545816121e7565b9050919050565b600060208201905081810360008301526125658161220a565b9050919050565b600060208201905081810360008301526125858161222d565b9050919050565b600060208201905081810360008301526125a581612250565b9050919050565b600060208201905081810360008301526125c581612273565b9050919050565b60006020820190506125e16000830184612296565b92915050565b60006125f1612602565b90506125fd8282612823565b919050565b6000604051905090565b600067ffffffffffffffff821115612627576126266128bc565b5b612630826128eb565b9050602081019050919050565b600067ffffffffffffffff821115612658576126576128bc565b5b612661826128eb565b9050602081019050919050565b600081519050919050565b600081519050919050565b600082825260208201905092915050565b600082825260208201905092915050565b600081905092915050565b60006126bc826127a5565b91506126c7836127a5565b9250827fffffffffffffffffffffffffffffffffffffffffffffffffffffffffffffffff038211156126fc576126fb61285e565b5b828201905092915050565b6000612712826127a5565b915061271d836127a5565b9250828210156127305761272f61285e565b5b828203905092915050565b600061274682612785565b9050919050565b60008115159050919050565b60007fffffffff0000000000000000000000000000000000000000000000000000000082169050919050565b600073ffffffffffffffffffffffffffffffffffffffff82169050919050565b6000819050919050565b82818337600083830152505050565b60005b838110156127dc5780820151818401526020810190506127c1565b838111156127eb576000848401525b50505050565b6000600282049050600182168061280957607f821691505b6020821081141561281d5761281c61288d565b5b50919050565b61282c826128eb565b810181811067ffffffffffffffff8211171561284b5761284a6128bc565b5b80604052505050565b6000819050919050565b7f4e487b7100000000000000000000000000000000000000000000000000000000600052601160045260246000fd5b7f4e487b7100000000000000000000000000000000000000000000000000000000600052602260045260246000fd5b7f4e487b7100000000000000000000000000000000000000000000000000000000600052604160045260246000fd5b6000601f19601f8301169050919050565b7f4552433732313a207472616e7366657220746f206e6f6e20455243373231526560008201527f63656976657220696d706c656d656e7465720000000000000000000000000000602082015250565b7f4f776e61626c653a206e6577206f776e657220697320746865207a65726f206160008201527f6464726573730000000000000000000000000000000000000000000000000000602082015250565b7f4552433732313a20746f6b656e20616c7265616479206d696e74656400000000600082015250565b7f4552433732313a207472616e7366657220746f20746865207a65726f2061646460008201527f7265737300000000000000000000000000000000000000000000000000000000602082015250565b7f4552433732313a20617070726f766520746f2063616c6c657200000000000000600082015250565b7f4552433732313a206f70657261746f7220717565727920666f72206e6f6e657860008201527f697374656e7420746f6b656e0000000000000000000000000000000000000000602082015250565b7f4552433732313a20617070726f76652063616c6c6572206973206e6f74206f7760008201527f6e6572206e6f7220617070726f76656420666f7220616c6c0000000000000000602082015250565b7f4552433732313a2062616c616e636520717565727920666f7220746865207a6560008201527f726f206164647265737300000000000000000000000000000000000000000000602082015250565b7f4552433732313a206f776e657220717565727920666f72206e6f6e657869737460008201527f656e7420746f6b656e0000000000000000000000000000000000000000000000602082015250565b7f4552433732313a206d696e7420746f20746865207a65726f2061646472657373600082015250565b7f4552433732313a20617070726f76656420717565727920666f72206e6f6e657860008201527f697374656e7420746f6b656e0000000000000000000000000000000000000000602082015250565b7f4552433732314d657461646174613a2055524920736574206f66206e6f6e657860008201527f697374656e7420746f6b656e0000000000000000000000000000000000000000602082015250565b7f4f776e61626c653a2063616c6c6572206973206e6f7420746865206f776e6572600082015250565b7f4552433732313a207472616e73666572206f6620746f6b656e2074686174206960008201527f73206e6f74206f776e0000000000000000000000000000000000000000000000602082015250565b7f4552433732314d657461646174613a2055524920717565727920666f72206e6f60008201527f6e6578697374656e7420746f6b656e0000000000000000000000000000000000602082015250565b7f4552433732313a20617070726f76616c20746f2063757272656e74206f776e6560008201527f7200000000000000000000000000000000000000000000000000000000000000602082015250565b7f4552433732313a207472616e736665722063616c6c6572206973206e6f74206f60008201527f776e6572206e6f7220617070726f766564000000000000000000000000000000602082015250565b612dac8161273b565b8114612db757600080fd5b50565b612dc38161274d565b8114612dce57600080fd5b50565b612dda81612759565b8114612de557600080fd5b50565b612df1816127a5565b8114612dfc57600080fd5b5056fea26469706673582212209362ab8f7d82624c065798c5078708fe35bf2e5a9166aba3ebb3b1e496dcb24464736f6c63430008010033",
  "immutableReferences": {},
  "source": "// SPDX-License-Identifier: MIT\n\npragma solidity ^0.8.0;\nimport {ERC721} from \"@openzeppelin/contracts/token/ERC721/ERC721.sol\";\nimport {Ownable} from \"@openzeppelin/contracts/access/Ownable.sol\";\n\ncontract Crypto_Care_NFT is ERC721,Ownable{\n\n   \n        \n        // Optional mapping for token URIs\n        mapping (uint256 => string) private _tokenURIs;\n\n        // Base URI\n        string private _baseURIextended;\n\n\n        constructor(string memory _name, string memory _symbol)\n            ERC721(_name, _symbol)\n        {}\n        \n        function setBaseURI(string memory baseURI_) external onlyOwner() {\n            _baseURIextended = baseURI_;\n        }\n        \n        function _setTokenURI(uint256 tokenId, string memory _tokenURI) internal virtual {\n            require(_exists(tokenId), \"ERC721Metadata: URI set of nonexistent token\");\n            _tokenURIs[tokenId] = _tokenURI;\n        }\n        \n        function _baseURI() internal view virtual override returns (string memory) {\n            return _baseURIextended;\n        }\n        \n        function tokenURI(uint256 tokenId) public view virtual override returns (string memory) {\n            require(_exists(tokenId), \"ERC721Metadata: URI query for nonexistent token\");\n\n            string memory _tokenURI = _tokenURIs[tokenId];\n            string memory base = _baseURI();\n            \n            // If there is no base URI, return the token URI.\n            if (bytes(base).length == 0) {\n                return _tokenURI;\n            }\n            // If both are set, concatenate the baseURI and tokenURI (via abi.encodePacked).\n            if (bytes(_tokenURI).length > 0) {\n                return string(abi.encodePacked(base, _tokenURI));\n            }\n            // If there is a baseURI but no tokenURI, concatenate the tokenID to the baseURI.\n            return string(abi.encodePacked(base, tokenId));\n        }\n        \n\n        function mint(\n            address _to,\n            uint256 _tokenId,\n            string memory tokenURI_\n        ) external onlyOwner() {\n            _mint(_to, _tokenId);\n            _setTokenURI(_tokenId, tokenURI_);\n        }\n}",
  "sourcePath": "/home/aditya/Desktop/Cryptocares/crypto-cares/contracts/CryptoCaresNFT.sol",
  "compiler": {
    "name": "solc",
    "version": "0.8.1+commit.df193b15.Emscripten.clang"
  },
  "schemaVersion": "3.3.4",
  "updatedAt": "2021-05-20T11:04:02.164Z",
  "devdoc": {
    "kind": "dev",
    "methods": {
      "approve(address,uint256)": {
        "details": "See {IERC721-approve}."
      },
      "balanceOf(address)": {
        "details": "See {IERC721-balanceOf}."
      },
      "getApproved(uint256)": {
        "details": "See {IERC721-getApproved}."
      },
      "isApprovedForAll(address,address)": {
        "details": "See {IERC721-isApprovedForAll}."
      },
      "name()": {
        "details": "See {IERC721Metadata-name}."
      },
      "owner()": {
        "details": "Returns the address of the current owner."
      },
      "ownerOf(uint256)": {
        "details": "See {IERC721-ownerOf}."
      },
      "renounceOwnership()": {
        "details": "Leaves the contract without owner. It will not be possible to call `onlyOwner` functions anymore. Can only be called by the current owner. NOTE: Renouncing ownership will leave the contract without an owner, thereby removing any functionality that is only available to the owner."
      },
      "safeTransferFrom(address,address,uint256)": {
        "details": "See {IERC721-safeTransferFrom}."
      },
      "safeTransferFrom(address,address,uint256,bytes)": {
        "details": "See {IERC721-safeTransferFrom}."
      },
      "setApprovalForAll(address,bool)": {
        "details": "See {IERC721-setApprovalForAll}."
      },
      "supportsInterface(bytes4)": {
        "details": "See {IERC165-supportsInterface}."
      },
      "symbol()": {
        "details": "See {IERC721Metadata-symbol}."
      },
      "tokenURI(uint256)": {
        "details": "See {IERC721Metadata-tokenURI}."
      },
      "transferFrom(address,address,uint256)": {
        "details": "See {IERC721-transferFrom}."
      },
      "transferOwnership(address)": {
        "details": "Transfers ownership of the contract to a new account (`newOwner`). Can only be called by the current owner."
      }
    },
    "version": 1
  },
  "userdoc": {
    "kind": "user",
    "methods": {},
    "version": 1
  }
}